{
  "address": "0xCf7Ed3AccA5a467e9e704C703E8D87F634fB0Fc9",
  "abi": [
    {
      "inputs": [
        {
          "internalType": "address",
          "name": "vrfCoordinatorV2",
          "type": "address"
        },
        {
          "internalType": "uint256",
          "name": "ticketPrice",
          "type": "uint256"
        },
        {
          "internalType": "bytes32",
          "name": "keyHash",
          "type": "bytes32"
        },
        {
          "internalType": "uint256",
          "name": "subscriptionId",
          "type": "uint256"
        },
        {
          "internalType": "uint32",
          "name": "callbackGasLimit",
          "type": "uint32"
        },
        {
          "internalType": "uint256",
          "name": "interval",
          "type": "uint256"
        }
      ],
      "stateMutability": "nonpayable",
      "type": "constructor"
    },
    {
      "inputs": [],
      "name": "Lottery__Closed",
      "type": "error"
    },
    {
      "inputs": [],
      "name": "Lottery__NotEnoughETHforTicket",
      "type": "error"
    },
    {
      "inputs": [],
      "name": "Lottery__TransactionFailed",
      "type": "error"
    },
    {
      "inputs": [
        {
          "internalType": "address",
          "name": "have",
          "type": "address"
        },
        {
          "internalType": "address",
          "name": "want",
          "type": "address"
        }
      ],
      "name": "OnlyCoordinatorCanFulfill",
      "type": "error"
    },
    {
      "inputs": [
        {
          "internalType": "address",
          "name": "have",
          "type": "address"
        },
        {
          "internalType": "address",
          "name": "owner",
          "type": "address"
        },
        {
          "internalType": "address",
          "name": "coordinator",
          "type": "address"
        }
      ],
      "name": "OnlyOwnerOrCoordinator",
      "type": "error"
    },
    {
      "inputs": [],
      "name": "ZeroAddress",
      "type": "error"
    },
    {
      "anonymous": false,
      "inputs": [
        {
          "indexed": false,
          "internalType": "address",
          "name": "vrfCoordinator",
          "type": "address"
        }
      ],
      "name": "CoordinatorSet",
      "type": "event"
    },
    {
      "anonymous": false,
      "inputs": [
        {
          "indexed": true,
          "internalType": "address",
          "name": "player",
          "type": "address"
        }
      ],
      "name": "LotteryEnter",
      "type": "event"
    },
    {
      "anonymous": false,
      "inputs": [
        {
          "indexed": true,
          "internalType": "address",
          "name": "from",
          "type": "address"
        },
        {
          "indexed": true,
          "internalType": "address",
          "name": "to",
          "type": "address"
        }
      ],
      "name": "OwnershipTransferRequested",
      "type": "event"
    },
    {
      "anonymous": false,
      "inputs": [
        {
          "indexed": true,
          "internalType": "address",
          "name": "from",
          "type": "address"
        },
        {
          "indexed": true,
          "internalType": "address",
          "name": "to",
          "type": "address"
        }
      ],
      "name": "OwnershipTransferred",
      "type": "event"
    },
    {
      "anonymous": false,
      "inputs": [
        {
          "indexed": true,
          "internalType": "uint256",
          "name": "requestId",
          "type": "uint256"
        }
      ],
      "name": "RequestedLotteryWinner",
      "type": "event"
    },
    {
      "anonymous": false,
      "inputs": [
        {
          "indexed": true,
          "internalType": "address",
          "name": "winner",
          "type": "address"
        }
      ],
      "name": "WinnerPicked",
      "type": "event"
    },
    {
      "inputs": [],
      "name": "EnterLottery",
      "outputs": [],
      "stateMutability": "payable",
      "type": "function"
    },
    {
      "inputs": [],
      "name": "acceptOwnership",
      "outputs": [],
      "stateMutability": "nonpayable",
      "type": "function"
    },
    {
      "inputs": [
        {
          "internalType": "bytes",
          "name": "",
          "type": "bytes"
        }
      ],
      "name": "checkUpkeep",
      "outputs": [
        {
          "internalType": "bool",
          "name": "upkeepNeeded",
          "type": "bool"
        },
        {
          "internalType": "bytes",
          "name": "",
          "type": "bytes"
        }
      ],
      "stateMutability": "view",
      "type": "function"
    },
    {
      "inputs": [],
      "name": "getInterval",
      "outputs": [
        {
          "internalType": "uint256",
          "name": "",
          "type": "uint256"
        }
      ],
      "stateMutability": "view",
      "type": "function"
    },
    {
      "inputs": [],
      "name": "getLatestTimestamp",
      "outputs": [
        {
          "internalType": "uint256",
          "name": "",
          "type": "uint256"
        }
      ],
      "stateMutability": "view",
      "type": "function"
    },
    {
      "inputs": [],
      "name": "getLotteryState",
      "outputs": [
        {
          "internalType": "enum Lottery.LotteryState",
          "name": "",
          "type": "uint8"
        }
      ],
      "stateMutability": "view",
      "type": "function"
    },
    {
      "inputs": [],
      "name": "getNumPlayers",
      "outputs": [
        {
          "internalType": "uint256",
          "name": "",
          "type": "uint256"
        }
      ],
      "stateMutability": "view",
      "type": "function"
    },
    {
      "inputs": [],
      "name": "getNumWords",
      "outputs": [
        {
          "internalType": "uint32",
          "name": "",
          "type": "uint32"
        }
      ],
      "stateMutability": "pure",
      "type": "function"
    },
    {
      "inputs": [
        {
          "internalType": "uint256",
          "name": "index",
          "type": "uint256"
        }
      ],
      "name": "getPlayers",
      "outputs": [
        {
          "internalType": "address",
          "name": "",
          "type": "address"
        }
      ],
      "stateMutability": "view",
      "type": "function"
    },
    {
      "inputs": [],
      "name": "getRecentWinner",
      "outputs": [
        {
          "internalType": "address",
          "name": "",
          "type": "address"
        }
      ],
      "stateMutability": "view",
      "type": "function"
    },
    {
      "inputs": [],
      "name": "getRequestConfirmations",
      "outputs": [
        {
          "internalType": "uint16",
          "name": "",
          "type": "uint16"
        }
      ],
      "stateMutability": "pure",
      "type": "function"
    },
    {
      "inputs": [],
      "name": "getcallbackGasLimit",
      "outputs": [
        {
          "internalType": "uint32",
          "name": "",
          "type": "uint32"
        }
      ],
      "stateMutability": "view",
      "type": "function"
    },
    {
      "inputs": [],
      "name": "getkeyHash",
      "outputs": [
        {
          "internalType": "bytes32",
          "name": "",
          "type": "bytes32"
        }
      ],
      "stateMutability": "view",
      "type": "function"
    },
    {
      "inputs": [],
      "name": "getsubscriptionId",
      "outputs": [
        {
          "internalType": "uint256",
          "name": "",
          "type": "uint256"
        }
      ],
      "stateMutability": "view",
      "type": "function"
    },
    {
      "inputs": [],
      "name": "getticketPrice",
      "outputs": [
        {
          "internalType": "uint256",
          "name": "",
          "type": "uint256"
        }
      ],
      "stateMutability": "view",
      "type": "function"
    },
    {
      "inputs": [],
      "name": "owner",
      "outputs": [
        {
          "internalType": "address",
          "name": "",
          "type": "address"
        }
      ],
      "stateMutability": "view",
      "type": "function"
    },
    {
      "inputs": [
        {
          "internalType": "bytes",
          "name": "",
          "type": "bytes"
        }
      ],
      "name": "performUpkeep",
      "outputs": [],
      "stateMutability": "nonpayable",
      "type": "function"
    },
    {
      "inputs": [
        {
          "internalType": "uint256",
          "name": "requestId",
          "type": "uint256"
        },
        {
          "internalType": "uint256[]",
          "name": "randomWords",
          "type": "uint256[]"
        }
      ],
      "name": "rawFulfillRandomWords",
      "outputs": [],
      "stateMutability": "nonpayable",
      "type": "function"
    },
    {
      "inputs": [],
      "name": "s_vrfCoordinator",
      "outputs": [
        {
          "internalType": "contract IVRFCoordinatorV2Plus",
          "name": "",
          "type": "address"
        }
      ],
      "stateMutability": "view",
      "type": "function"
    },
    {
      "inputs": [
        {
          "internalType": "address",
          "name": "_vrfCoordinator",
          "type": "address"
        }
      ],
      "name": "setCoordinator",
      "outputs": [],
      "stateMutability": "nonpayable",
      "type": "function"
    },
    {
      "inputs": [
        {
          "internalType": "address",
          "name": "to",
          "type": "address"
        }
      ],
      "name": "transferOwnership",
      "outputs": [],
      "stateMutability": "nonpayable",
      "type": "function"
    },
    {
      "stateMutability": "payable",
      "type": "receive"
    }
  ],
  "transactionHash": "0xdaec3c2abe54dd2f90116dcc2dafa6ba86884f83757ed5e253fc758554e7a732",
  "args": [
    "0x5FbDB2315678afecb367f032d93F642f64180aa3",
    "250000000000000000",
    "0x787d74caea10b2b357790d5b5247c2f63d1d91572a9846f780606e4d953677ae",
    "18519298222765217847346889008434726811004706862401518029996602433470515407291",
    "500000",
    "30"
  ],
  "numDeployments": 1,
  "solcInputHash": "b5bf78926f21685b1fc7caabef07e6d7",
  "bytecode": "0x61012060405234801561001157600080fd5b506040516126263803806126268339818101604052810190610033919061047e565b85338060008073ffffffffffffffffffffffffffffffffffffffff168273ffffffffffffffffffffffffffffffffffffffff16036100a6576040517f08c379a000000000000000000000000000000000000000000000000000000000815260040161009d90610568565b60405180910390fd5b816000806101000a81548173ffffffffffffffffffffffffffffffffffffffff021916908373ffffffffffffffffffffffffffffffffffffffff160217905550600073ffffffffffffffffffffffffffffffffffffffff168173ffffffffffffffffffffffffffffffffffffffff161461012a576101298161024760201b60201c565b5b505050600073ffffffffffffffffffffffffffffffffffffffff168173ffffffffffffffffffffffffffffffffffffffff1603610193576040517fd92e233d00000000000000000000000000000000000000000000000000000000815260040160405180910390fd5b80600260006101000a81548173ffffffffffffffffffffffffffffffffffffffff021916908373ffffffffffffffffffffffffffffffffffffffff1602179055505084608081815250508360a081815250508260c081815250508163ffffffff1660e08163ffffffff16815250506000600560146101000a81548160ff0219169083600181111561022757610226610588565b5b021790555042600481905550806101008181525050505050505050610623565b3373ffffffffffffffffffffffffffffffffffffffff168173ffffffffffffffffffffffffffffffffffffffff16036102b5576040517f08c379a00000000000000000000000000000000000000000000000000000000081526004016102ac90610603565b60405180910390fd5b80600160006101000a81548173ffffffffffffffffffffffffffffffffffffffff021916908373ffffffffffffffffffffffffffffffffffffffff1602179055508073ffffffffffffffffffffffffffffffffffffffff1660008054906101000a900473ffffffffffffffffffffffffffffffffffffffff1673ffffffffffffffffffffffffffffffffffffffff167fed8889f560326eb138920d842192f0eb3dd22b4f139c87a2c57538e05bae127860405160405180910390a350565b600080fd5b600073ffffffffffffffffffffffffffffffffffffffff82169050919050565b60006103a382610378565b9050919050565b6103b381610398565b81146103be57600080fd5b50565b6000815190506103d0816103aa565b92915050565b6000819050919050565b6103e9816103d6565b81146103f457600080fd5b50565b600081519050610406816103e0565b92915050565b6000819050919050565b61041f8161040c565b811461042a57600080fd5b50565b60008151905061043c81610416565b92915050565b600063ffffffff82169050919050565b61045b81610442565b811461046657600080fd5b50565b60008151905061047881610452565b92915050565b60008060008060008060c0878903121561049b5761049a610373565b5b60006104a989828a016103c1565b96505060206104ba89828a016103f7565b95505060406104cb89828a0161042d565b94505060606104dc89828a016103f7565b93505060806104ed89828a01610469565b92505060a06104fe89828a016103f7565b9150509295509295509295565b600082825260208201905092915050565b7f43616e6e6f7420736574206f776e657220746f207a65726f0000000000000000600082015250565b600061055260188361050b565b915061055d8261051c565b602082019050919050565b6000602082019050818103600083015261058181610545565b9050919050565b7f4e487b7100000000000000000000000000000000000000000000000000000000600052602160045260246000fd5b7f43616e6e6f74207472616e7366657220746f2073656c66000000000000000000600082015250565b60006105ed60178361050b565b91506105f8826105b7565b602082019050919050565b6000602082019050818103600083015261061c816105e0565b9050919050565b60805160a05160c05160e05161010051611f9c61068a600039600081816109a60152610dee0152600081816107d50152610e160152600081816107a40152610e640152600081816106e2015261077e0152600081816105710152610e8c0152611f9c6000f3fe60806040526004361061012e5760003560e01c80636e04ff0d116100ab5780639862eed01161006f5780639862eed0146103a95780639eccacf6146103d4578063b4f8d9f2146103ff578063c68936b61461042a578063f2fde38b14610455578063f43b52cb1461047e57610135565b80636e04ff0d146102d557806379ba5097146103135780638da5cb5b1461032a5780638ea981171461035557806391ad27b41461037e57610135565b8063473f1ddc116100f2578063473f1ddc146101fe57806353a2c19a1461022957806355c9e926146102545780635f1b0fd81461027f5780636b68c03c146102aa57610135565b80631fe543e31461013a57806330f4c43d1461016357806340cc232b1461016d5780634585e33b14610198578063460e2049146101c157610135565b3661013557005b600080fd5b34801561014657600080fd5b50610161600480360381019061015c91906114ab565b6104a9565b005b61016b61056f565b005b34801561017957600080fd5b506101826106de565b60405161018f9190611524565b60405180910390f35b3480156101a457600080fd5b506101bf60048036038101906101ba9190611595565b610706565b005b3480156101cd57600080fd5b506101e860048036038101906101e391906115e2565b6108bc565b6040516101f59190611650565b60405180910390f35b34801561020a57600080fd5b50610213610904565b6040516102209190611650565b60405180910390f35b34801561023557600080fd5b5061023e61092e565b60405161024b919061168a565b60405180910390f35b34801561026057600080fd5b50610269610937565b60405161027691906116b4565b60405180910390f35b34801561028b57600080fd5b50610294610944565b6040516102a191906116ec565b60405180910390f35b3480156102b657600080fd5b506102bf61094d565b6040516102cc919061177e565b60405180910390f35b3480156102e157600080fd5b506102fc60048036038101906102f791906118da565b610964565b60405161030a9291906119bd565b60405180910390f35b34801561031f57600080fd5b50610328610a4b565b005b34801561033657600080fd5b5061033f610be0565b60405161034c9190611650565b60405180910390f35b34801561036157600080fd5b5061037c60048036038101906103779190611a19565b610c09565b005b34801561038a57600080fd5b50610393610dea565b6040516103a091906116b4565b60405180910390f35b3480156103b557600080fd5b506103be610e12565b6040516103cb919061168a565b60405180910390f35b3480156103e057600080fd5b506103e9610e3a565b6040516103f69190611aa5565b60405180910390f35b34801561040b57600080fd5b50610414610e60565b60405161042191906116b4565b60405180910390f35b34801561043657600080fd5b5061043f610e88565b60405161044c91906116b4565b60405180910390f35b34801561046157600080fd5b5061047c60048036038101906104779190611a19565b610eb0565b005b34801561048a57600080fd5b50610493610ec4565b6040516104a091906116b4565b60405180910390f35b600260009054906101000a900473ffffffffffffffffffffffffffffffffffffffff1673ffffffffffffffffffffffffffffffffffffffff163373ffffffffffffffffffffffffffffffffffffffff161461055f5733600260009054906101000a900473ffffffffffffffffffffffffffffffffffffffff166040517f1cf993f4000000000000000000000000000000000000000000000000000000008152600401610556929190611ac0565b60405180910390fd5b61056a838383610ece565b505050565b7f00000000000000000000000000000000000000000000000000000000000000003410156105c9576040517f944a25f800000000000000000000000000000000000000000000000000000000815260040160405180910390fd5b600060018111156105dd576105dc611707565b5b600560149054906101000a900460ff1660018111156105ff576105fe611707565b5b14610636576040517f7d6d79f400000000000000000000000000000000000000000000000000000000815260040160405180910390fd5b6003339080600181540180825580915050600190039060005260206000200160009091909190916101000a81548173ffffffffffffffffffffffffffffffffffffffff021916908373ffffffffffffffffffffffffffffffffffffffff1602179055503373ffffffffffffffffffffffffffffffffffffffff167f1d64fb5ba9f2548c5b98468d58f25b87b9e866afee0122e92d9fe722bf85076c60405160405180910390a2565b60007f0000000000000000000000000000000000000000000000000000000000000000905090565b6001600560146101000a81548160ff0219169083600181111561072c5761072b611707565b5b02179055506000600260009054906101000a900473ffffffffffffffffffffffffffffffffffffffff1673ffffffffffffffffffffffffffffffffffffffff16639b1c385e6040518060c001604052807f000000000000000000000000000000000000000000000000000000000000000081526020017f00000000000000000000000000000000000000000000000000000000000000008152602001600361ffff1681526020017f000000000000000000000000000000000000000000000000000000000000000063ffffffff168152602001600163ffffffff168152602001610826604051806020016040528060011515815250611101565b8152506040518263ffffffff1660e01b81526004016108459190611bf8565b6020604051808303816000875af1158015610864573d6000803e3d6000fd5b505050506040513d601f19601f820116820180604052508101906108889190611c2f565b9050807febf56642252004c18a776f30d528e7a0ce8c5db14b6596fb6550f630c8a24c6c60405160405180910390a2505050565b6000600382815481106108d2576108d1611c5c565b5b9060005260206000200160009054906101000a900473ffffffffffffffffffffffffffffffffffffffff169050919050565b6000600560009054906101000a900473ffffffffffffffffffffffffffffffffffffffff16905090565b60006001905090565b6000600380549050905090565b60006003905090565b6000600560149054906101000a900460ff16905090565b60006060600080600181111561097d5761097c611707565b5b600560149054906101000a900460ff16600181111561099f5761099e611707565b5b14905060007f0000000000000000000000000000000000000000000000000000000000000000600454426109d39190611cba565b119050600080600380549050119050600080471190508380156109f35750825b80156109fc5750815b8015610a055750805b9550856040518060400160405280600381526020017f30783000000000000000000000000000000000000000000000000000000000008152509550955050505050915091565b600160009054906101000a900473ffffffffffffffffffffffffffffffffffffffff1673ffffffffffffffffffffffffffffffffffffffff163373ffffffffffffffffffffffffffffffffffffffff1614610adb576040517f08c379a0000000000000000000000000000000000000000000000000000000008152600401610ad290611d4b565b60405180910390fd5b60008060009054906101000a900473ffffffffffffffffffffffffffffffffffffffff169050336000806101000a81548173ffffffffffffffffffffffffffffffffffffffff021916908373ffffffffffffffffffffffffffffffffffffffff1602179055506000600160006101000a81548173ffffffffffffffffffffffffffffffffffffffff021916908373ffffffffffffffffffffffffffffffffffffffff1602179055503373ffffffffffffffffffffffffffffffffffffffff168173ffffffffffffffffffffffffffffffffffffffff167f8be0079c531659141344cd1fd0a4f28419497f9722a3daafe3b4186f6b6457e060405160405180910390a350565b60008060009054906101000a900473ffffffffffffffffffffffffffffffffffffffff16905090565b610c11610be0565b73ffffffffffffffffffffffffffffffffffffffff163373ffffffffffffffffffffffffffffffffffffffff1614158015610c9a5750600260009054906101000a900473ffffffffffffffffffffffffffffffffffffffff1673ffffffffffffffffffffffffffffffffffffffff163373ffffffffffffffffffffffffffffffffffffffff1614155b15610d095733610ca8610be0565b600260009054906101000a900473ffffffffffffffffffffffffffffffffffffffff166040517f061db9c1000000000000000000000000000000000000000000000000000000008152600401610d0093929190611d6b565b60405180910390fd5b600073ffffffffffffffffffffffffffffffffffffffff168173ffffffffffffffffffffffffffffffffffffffff1603610d6f576040517fd92e233d00000000000000000000000000000000000000000000000000000000815260040160405180910390fd5b80600260006101000a81548173ffffffffffffffffffffffffffffffffffffffff021916908373ffffffffffffffffffffffffffffffffffffffff1602179055507fd1a6a14209a385a964d036e404cb5cfb71f4000cdb03c9366292430787261be681604051610ddf9190611650565b60405180910390a150565b60007f0000000000000000000000000000000000000000000000000000000000000000905090565b60007f0000000000000000000000000000000000000000000000000000000000000000905090565b600260009054906101000a900473ffffffffffffffffffffffffffffffffffffffff1681565b60007f0000000000000000000000000000000000000000000000000000000000000000905090565b60007f0000000000000000000000000000000000000000000000000000000000000000905090565b610eb8611199565b610ec181611229565b50565b6000600454905090565b600060038054905083836000818110610eea57610ee9611c5c565b5b90506020020135610efb9190611dd1565b9050600060038281548110610f1357610f12611c5c565b5b9060005260206000200160009054906101000a900473ffffffffffffffffffffffffffffffffffffffff16905080600560006101000a81548173ffffffffffffffffffffffffffffffffffffffff021916908373ffffffffffffffffffffffffffffffffffffffff16021790555060008173ffffffffffffffffffffffffffffffffffffffff1647604051610fa790611e33565b60006040518083038185875af1925050503d8060008114610fe4576040519150601f19603f3d011682016040523d82523d6000602084013e610fe9565b606091505b505090506000600560146101000a81548160ff0219169083600181111561101357611012611707565b5b0217905550600067ffffffffffffffff811115611033576110326117af565b5b6040519080825280602002602001820160405280156110615781602001602082028036833780820191505090505b5060039080519060200190611077929190611355565b5042600481905550806110b6576040517f5271696c00000000000000000000000000000000000000000000000000000000815260040160405180910390fd5b8173ffffffffffffffffffffffffffffffffffffffff167f5b690ec4a06fe979403046eaeea5b3ce38524683c3001f662c8b5a829632f7df60405160405180910390a2505050505050565b60607f92fd13387c7fe7befbc38d303d6468778fb9731bc4583f17d92989c6fcfdeaaa826040516024016111359190611e73565b604051602081830303815290604052907bffffffffffffffffffffffffffffffffffffffffffffffffffffffff19166020820180517bffffffffffffffffffffffffffffffffffffffffffffffffffffffff83818316178352505050509050919050565b60008054906101000a900473ffffffffffffffffffffffffffffffffffffffff1673ffffffffffffffffffffffffffffffffffffffff163373ffffffffffffffffffffffffffffffffffffffff1614611227576040517f08c379a000000000000000000000000000000000000000000000000000000000815260040161121e90611eda565b60405180910390fd5b565b3373ffffffffffffffffffffffffffffffffffffffff168173ffffffffffffffffffffffffffffffffffffffff1603611297576040517f08c379a000000000000000000000000000000000000000000000000000000000815260040161128e90611f46565b60405180910390fd5b80600160006101000a81548173ffffffffffffffffffffffffffffffffffffffff021916908373ffffffffffffffffffffffffffffffffffffffff1602179055508073ffffffffffffffffffffffffffffffffffffffff1660008054906101000a900473ffffffffffffffffffffffffffffffffffffffff1673ffffffffffffffffffffffffffffffffffffffff167fed8889f560326eb138920d842192f0eb3dd22b4f139c87a2c57538e05bae127860405160405180910390a350565b8280548282559060005260206000209081019282156113ce579160200282015b828111156113cd5782518260006101000a81548173ffffffffffffffffffffffffffffffffffffffff021916908373ffffffffffffffffffffffffffffffffffffffff16021790555091602001919060010190611375565b5b5090506113db91906113df565b5090565b5b808211156113f85760008160009055506001016113e0565b5090565b6000604051905090565b600080fd5b600080fd5b6000819050919050565b61142381611410565b811461142e57600080fd5b50565b6000813590506114408161141a565b92915050565b600080fd5b600080fd5b600080fd5b60008083601f84011261146b5761146a611446565b5b8235905067ffffffffffffffff8111156114885761148761144b565b5b6020830191508360208202830111156114a4576114a3611450565b5b9250929050565b6000806000604084860312156114c4576114c3611406565b5b60006114d286828701611431565b935050602084013567ffffffffffffffff8111156114f3576114f261140b565b5b6114ff86828701611455565b92509250509250925092565b6000819050919050565b61151e8161150b565b82525050565b60006020820190506115396000830184611515565b92915050565b60008083601f84011261155557611554611446565b5b8235905067ffffffffffffffff8111156115725761157161144b565b5b60208301915083600182028301111561158e5761158d611450565b5b9250929050565b600080602083850312156115ac576115ab611406565b5b600083013567ffffffffffffffff8111156115ca576115c961140b565b5b6115d68582860161153f565b92509250509250929050565b6000602082840312156115f8576115f7611406565b5b600061160684828501611431565b91505092915050565b600073ffffffffffffffffffffffffffffffffffffffff82169050919050565b600061163a8261160f565b9050919050565b61164a8161162f565b82525050565b60006020820190506116656000830184611641565b92915050565b600063ffffffff82169050919050565b6116848161166b565b82525050565b600060208201905061169f600083018461167b565b92915050565b6116ae81611410565b82525050565b60006020820190506116c960008301846116a5565b92915050565b600061ffff82169050919050565b6116e6816116cf565b82525050565b600060208201905061170160008301846116dd565b92915050565b7f4e487b7100000000000000000000000000000000000000000000000000000000600052602160045260246000fd5b6002811061174757611746611707565b5b50565b600081905061175882611736565b919050565b60006117688261174a565b9050919050565b6117788161175d565b82525050565b6000602082019050611793600083018461176f565b92915050565b600080fd5b6000601f19601f8301169050919050565b7f4e487b7100000000000000000000000000000000000000000000000000000000600052604160045260246000fd5b6117e78261179e565b810181811067ffffffffffffffff82111715611806576118056117af565b5b80604052505050565b60006118196113fc565b905061182582826117de565b919050565b600067ffffffffffffffff821115611845576118446117af565b5b61184e8261179e565b9050602081019050919050565b82818337600083830152505050565b600061187d6118788461182a565b61180f565b90508281526020810184848401111561189957611898611799565b5b6118a484828561185b565b509392505050565b600082601f8301126118c1576118c0611446565b5b81356118d184826020860161186a565b91505092915050565b6000602082840312156118f0576118ef611406565b5b600082013567ffffffffffffffff81111561190e5761190d61140b565b5b61191a848285016118ac565b91505092915050565b60008115159050919050565b61193881611923565b82525050565b600081519050919050565b600082825260208201905092915050565b60005b8381101561197857808201518184015260208101905061195d565b60008484015250505050565b600061198f8261193e565b6119998185611949565b93506119a981856020860161195a565b6119b28161179e565b840191505092915050565b60006040820190506119d2600083018561192f565b81810360208301526119e48184611984565b90509392505050565b6119f68161162f565b8114611a0157600080fd5b50565b600081359050611a13816119ed565b92915050565b600060208284031215611a2f57611a2e611406565b5b6000611a3d84828501611a04565b91505092915050565b6000819050919050565b6000611a6b611a66611a618461160f565b611a46565b61160f565b9050919050565b6000611a7d82611a50565b9050919050565b6000611a8f82611a72565b9050919050565b611a9f81611a84565b82525050565b6000602082019050611aba6000830184611a96565b92915050565b6000604082019050611ad56000830185611641565b611ae26020830184611641565b9392505050565b611af28161150b565b82525050565b611b0181611410565b82525050565b611b10816116cf565b82525050565b611b1f8161166b565b82525050565b600082825260208201905092915050565b6000611b418261193e565b611b4b8185611b25565b9350611b5b81856020860161195a565b611b648161179e565b840191505092915050565b600060c083016000830151611b876000860182611ae9565b506020830151611b9a6020860182611af8565b506040830151611bad6040860182611b07565b506060830151611bc06060860182611b16565b506080830151611bd36080860182611b16565b5060a083015184820360a0860152611beb8282611b36565b9150508091505092915050565b60006020820190508181036000830152611c128184611b6f565b905092915050565b600081519050611c298161141a565b92915050565b600060208284031215611c4557611c44611406565b5b6000611c5384828501611c1a565b91505092915050565b7f4e487b7100000000000000000000000000000000000000000000000000000000600052603260045260246000fd5b7f4e487b7100000000000000000000000000000000000000000000000000000000600052601160045260246000fd5b6000611cc582611410565b9150611cd083611410565b9250828203905081811115611ce857611ce7611c8b565b5b92915050565b600082825260208201905092915050565b7f4d7573742062652070726f706f736564206f776e657200000000000000000000600082015250565b6000611d35601683611cee565b9150611d4082611cff565b602082019050919050565b60006020820190508181036000830152611d6481611d28565b9050919050565b6000606082019050611d806000830186611641565b611d8d6020830185611641565b611d9a6040830184611641565b949350505050565b7f4e487b7100000000000000000000000000000000000000000000000000000000600052601260045260246000fd5b6000611ddc82611410565b9150611de783611410565b925082611df757611df6611da2565b5b828206905092915050565b600081905092915050565b50565b6000611e1d600083611e02565b9150611e2882611e0d565b600082019050919050565b6000611e3e82611e10565b9150819050919050565b611e5181611923565b82525050565b602082016000820151611e6d6000850182611e48565b50505050565b6000602082019050611e886000830184611e57565b92915050565b7f4f6e6c792063616c6c61626c65206279206f776e657200000000000000000000600082015250565b6000611ec4601683611cee565b9150611ecf82611e8e565b602082019050919050565b60006020820190508181036000830152611ef381611eb7565b9050919050565b7f43616e6e6f74207472616e7366657220746f2073656c66000000000000000000600082015250565b6000611f30601783611cee565b9150611f3b82611efa565b602082019050919050565b60006020820190508181036000830152611f5f81611f23565b905091905056fea2646970667358221220510f024d8886ebbd7a52488efd3d2786ec8be2c2c20f370689463732dc01d39364736f6c634300081b0033",
  "devdoc": {
    "author": "Shafe ali khan",
    "details": "This implements Chainlink VRF for ensuring the randomness and Chainlink Keepers for the automation of the Lottery",
    "kind": "dev",
    "methods": {},
    "title": "A Ethereum Lottery Smart Contract",
    "version": 1
  },
  "userdoc": {
    "kind": "user",
    "methods": {
      "acceptOwnership()": {
        "notice": "Allows an ownership transfer to be completed by the recipient."
      },
      "owner()": {
        "notice": "Get the current owner"
      },
      "setCoordinator(address)": {
        "notice": "Sets the VRF Coordinator addressThis method should only be callable by the coordinator or contract owner"
      },
      "transferOwnership(address)": {
        "notice": "Allows an owner to begin transferring ownership to a new address."
      }
    },
    "notice": "This is a smart contract for creating a Fair and Random Lottery",
    "version": 1
  },
  "storageLayout": {
    "storage": [
      {
        "astId": 48,
        "contract": "contracts/Lottery.sol:Lottery",
        "label": "s_owner",
        "offset": 0,
        "slot": "0",
        "type": "t_address"
      },
      {
        "astId": 50,
        "contract": "contracts/Lottery.sol:Lottery",
        "label": "s_pendingOwner",
        "offset": 0,
        "slot": "1",
        "type": "t_address"
      },
      {
        "astId": 308,
        "contract": "contracts/Lottery.sol:Lottery",
        "label": "s_vrfCoordinator",
        "offset": 0,
        "slot": "2",
        "type": "t_contract(IVRFCoordinatorV2Plus)457"
      },
      {
        "astId": 637,
        "contract": "contracts/Lottery.sol:Lottery",
        "label": "s_players",
        "offset": 0,
        "slot": "3",
        "type": "t_array(t_address_payable)dyn_storage"
      },
      {
        "astId": 651,
        "contract": "contracts/Lottery.sol:Lottery",
        "label": "s_lastTimeStamp",
        "offset": 0,
        "slot": "4",
        "type": "t_uint256"
      },
      {
        "astId": 655,
        "contract": "contracts/Lottery.sol:Lottery",
        "label": "s_recentWinner",
        "offset": 0,
        "slot": "5",
        "type": "t_address"
      },
      {
        "astId": 658,
        "contract": "contracts/Lottery.sol:Lottery",
        "label": "s_LotteryState",
        "offset": 20,
        "slot": "5",
        "type": "t_enum(LotteryState)632"
      }
    ],
    "types": {
      "t_address": {
        "encoding": "inplace",
        "label": "address",
        "numberOfBytes": "20"
      },
      "t_address_payable": {
        "encoding": "inplace",
        "label": "address payable",
        "numberOfBytes": "20"
      },
      "t_array(t_address_payable)dyn_storage": {
        "base": "t_address_payable",
        "encoding": "dynamic_array",
        "label": "address payable[]",
        "numberOfBytes": "32"
      },
      "t_contract(IVRFCoordinatorV2Plus)457": {
        "encoding": "inplace",
        "label": "contract IVRFCoordinatorV2Plus",
        "numberOfBytes": "20"
      },
      "t_enum(LotteryState)632": {
        "encoding": "inplace",
        "label": "enum Lottery.LotteryState",
        "numberOfBytes": "1"
      },
      "t_uint256": {
        "encoding": "inplace",
        "label": "uint256",
        "numberOfBytes": "32"
      }
    }
  }
}